:020000040801F1
:10000000480600204501010851100108531001085D
:10001000571001085B1001085F1001080000000084
:100020000000000000000000000000006310010854
:1000300065100108000000005B0101085D01010876
:100040005F0101085F0101085F0101085F0101080C
:100050005F0101085F0101085F0101085F010108FC
:100060005F0101085F0101085F0101085F010108EC
:100070005F0101085F0101085F0101085F010108DC
:100080005F0101085F0101085F0101085F010108CC
:100090005F0101085F0101085F0101085F010108BC
:1000A0005F0101085F0101085F0101085F010108AC
:1000B0005F0101085F0101085F0101085F0101089C
:1000C0005F0101085F0101085F0101085F0101088C
:1000D0005F010108F31201085F0101085F010108D7
:1000E0005F0101085F0101085F0101085F0101086C
:1000F0005F0101085F0101085F0101085F0101085C
:100100005F0101085F0101085F0101085F0101084B
:100110005F0101085F0101085F0101085F0101083B
:100120005F0101085F0101085F0101085F0101082B
:10013000DFF80CD001F05CF9004800470910010815
:10014000480600200648804706480047FEE7FEE7CD
:10015000FEE7FEE7FEE7FEE7FEE7FEE7FEE7FEE777
:1001600047020108310101080CB500200190009000
:100170006B48006840F480306949086000BF6848F7
:10018000006800F4003000900198401C0190009835
:1001900018B90198B0F5A06FF1D16148006800F47A
:1001A000003010B10120009001E000200090009884
:1001B000012843D15B48006840F0100059490860AD
:1001C0000846006820F0030008600846006840F018
:1001D000020008605248406851494860084640683B
:1001E00048600846406840F48060486008464068BF
:1001F00020F47C1048600846406840F4E8104860ED
:100200000846006840F08070086000BF44480068FD
:1002100000F000700028F9D04148406820F0030049
:100220003F4948600846406840F00200486000BF0F
:100230003B48406800F00C000828F9D10CBD10B50F
:10024000FFF792FF10BD10B53548006840F001007F
:1002500033490860084640683349084030494860DF
:1002600008460068314908402D4908600846006882
:1002700020F4802008600846406820F4FE004860B2
:100280004FF41F008860FFF7DAFF2948294908600A
:1002900010BD10B5002100200022214B5B6803F047
:1002A0000C0121B1042906D0082928D107E0224BEE
:1002B000224C236027E0204B204C236023E0184B86
:1002C0005B6803F47010164B5B6803F48032022302
:1002D00003EB904022B91A4B4343184C23600DE0C6
:1002E0000F4B5B6803F4003323B1154B4343134CAE
:1002F000236003E0104B4343104C236003E00E4B9C
:100300000E4C236000BF00BF054B5B68C3F30313B3
:100310000C4CE15C094B1B68CB40084C236010BDC2
:1003200000100240002002400000FFF8FFFFF6FE30
:100330000050000808ED00E000127A0000000020E4
:1003400000093D000400002031490143314A116099
:10035000704770B5002100230F22C47804B32D4CE0
:10036000246804F4E064C4F5E064210AC1F10403E4
:10037000CA40447804FA03F1847814402143090107
:10038000254C0678A155047804F01F050124AC40E3
:1003900005786D11AD0005F1E025C5F8004109E0D3
:1003A000047804F01F050124AC401C4D067876113A
:1003B00045F8264070BD1A4A0A400243154B1B1FE0
:1003C0001A60704739B1134A121D12680243114B6B
:1003D0001B1D1A6006E00F4A121D126882430D4B66
:1003E0001B1D1A607047042808D14FF0E0210969ED
:1003F00041F004014FF0E022116107E04FF0E021ED
:10040000096921F004014FF0E022116170470000FA
:100410000000FA050CED00E000E400E080E100E0FF
:1004200080FFFF1F10B50446CC48844208D101214B
:10043000042000F02DFB0021042000F029FB46E001
:10044000C748844208D10121082000F021FB002187
:10045000082000F01DFB3AE0C248844208D1012187
:10046000102000F015FB0021102000F011FB2EE001
:10047000BD48844208D10121202000F009FB002161
:10048000202000F005FB22E0B848844208D1012179
:10049000402000F0FDFA0021402000F0F9FA16E0BB
:1004A000B348844208D10121802000F0F1FA0021F4
:1004B000802000F0EDFA0AE0AE48844207D1012125
:1004C000801500F0E5FA0021A01500F0E1FA10BD5A
:1004D00010B50121084600F0DBFA0021012000F0F0
:1004E000D7FA10BD2DE9F041024600250026002074
:1004F00000230024002791F803C00CF00F0591F8A9
:1005000003C00CF0100CBCF1000F03D091F802C036
:100510004CEA050591F800C0BCF1000F31D0146819
:1005200000202BE04FF0010C0CFA00F3B1F800C0F2
:100530000CEA03069E4220D183004FF00F0C0CFA08
:1005400003F7BC4305FA03FC4CEA040491F803C02A
:10055000BCF1280F06D14FF0010C0CFA00FCC2F8D8
:1005600014C00AE091F803C0BCF1480F05D14FF068
:10057000010C0CFA00FCC2F810C0401C0828D1D3B2
:100580001460B1F800C0BCF1FF0F34DD54680020E6
:100590002EE000F1080C4FF0010808FA0CF3B1F856
:1005A00000C00CEA03069E4221D183004FF00F0CDD
:1005B0000CFA03F7BC4305FA03FC4CEA040491F877
:1005C00003C0BCF1280F05D100F1080C08FA0CF8A3
:1005D000C2F8148091F803C0BCF1480F07D100F1B4
:1005E000080C4FF0010808FA0CF8C2F81080401C03
:1005F0000828CED35460BDE8F0814FF6FF7101802A
:10060000022181700421C170704702460020936866
:100610000B400BB1012000E00020704701468868C4
:1006200080B2704702460020D3680B400BB1012016
:1006300000E0002070470146C86880B27047016141
:100640007047416170470AB1016100E04161704744
:10065000C16070474FF480320A43826181618261D8
:1006600082698269704702460020434B18684FF642
:100670008073184040EA021008433F4B18607047EF
:100680003E49C8617047F0B50A46002300240021A6
:10069000002500F00046B6F1004F02D1364EF16958
:1006A00001E0354E7168C0F3034583B200F4401693
:1006B000B6F5401F08D121F070612F4E766826F004
:1006C00070662D4F7E6012E000F48016B6F5801F34
:1006D00006D1032606FA05F4A14341F0706106E055
:1006E000460D360103FA06F6B14341F0706122B1BE
:1006F000460D360103FA06F6314300F00046B6F126
:10070000004F02D11C4EF16101E01B4E7160F0BD43
:1007100030B500228B071C0F0F2303FA04F2164B8F
:1007200008338C1053F824309343134C08348D1045
:1007300044F8253023468C1053F824308C07240FBE
:1007400000FA04F423430C4C08348D1044F825308F
:1007500030BD0A49DC3108607047000000080140E4
:10076000000C01400010014000140140001801403D
:10077000001C014000200140000001400000204218
:10078000DF48006840F00100DD4908600846406825
:10079000DC490840DA49486008460068DA49084000
:1007A000D74908600846006820F4802008600846A1
:1007B000406820F4FE0048604FF41F0088607047D6
:1007C000CF49096821F48031CD4A1160114609688A
:1007D00021F480211160B0F5803F03D0B0F5802F67
:1007E0000ED106E0C649096841F48031C44A11605F
:1007F00007E0C349096841F4A021C14A116000E043
:1008000000BF00BF704710B5014600220023002042
:100810004A11012A02D1BA4C236806E0022A02D109
:10082000B74C236A01E0B64C636A01F01F02012451
:1008300094401C400CB1012000E0002010BD38B5F0
:10084000002000900024002500BF3120FFF7DBFFCF
:1008500005460098401C00900098B0F5A06F01D0AC
:10086000002DF2D03120FFF7CEFF08B1012400E0C7
:100870000024204638BD01460020A14A106820F01F
:10088000F80040EAC10010607047A0490860704756
:10089000024600209A4B586820F47C1042EA01037B
:1008A0001843974B5860704798490866704701464F
:1008B0000020934A506820F00300084350607047BE
:1008C0008F48406800F00C007047014600208C4AB9
:1008D000506820F0F0000843506070470146002047
:1008E000874A506820F4E060084350607047014632
:1008F0000020834A506820F4605040EAC1005060F4
:10090000704729B17E4A527A02437D4B5A7204E005
:100910007B4A527A82437A4B5A7270477B49D8316C
:100920000860704701460020754A506820F4404036
:100930000843506070470021714A20321170704A9C
:1009400082F82010012802D004280AD104E00121F5
:100950006B4A2032117005E00521694A203211707E
:1009600000E000BF00BF70476949086070476449F4
:10097000096A0143624A1162704765494439086057
:10098000704730B500210022002400235C4D6D68C3
:1009900005F00C0121B1042905D0082923D105E077
:1009A0005C4D056022E05B4D05601FE0544D6D68B5
:1009B00005F47012524D6D6805F48034022505EB84
:1009C00092421CB9544D554305600BE04C4D6D6887
:1009D00005F400351DB1504D5543056002E04D4D05
:1009E0005543056002E04B4D056000BF00BF444D1C
:1009F0006D6805F0F0010909484D6B5C0568DD4044
:100A000045603F4D6D6805F4E061090A434D6B5C3C
:100A10004568DD4085603A4D6D6805F46051C90A4E
:100A20003E4D6B5C4568DD40C560354D6D6805F435
:100A30004041890B3A4D6B5CC568B5FBF3F5056128
:100A400030BD29B12E4A526902432D4B5A6104E050
:100A50002B4A526982432A4B5A61704729B1284A6E
:100A600092690243264B9A6104E0254A92698243C7
:100A7000234B9A61704729B1214AD2690243204B26
:100A8000DA6104E01E4AD26982431D4BDA61704785
:100A900029B11B4AD2680243194BDA6004E0184AB4
:100AA000D2688243164BDA60704729B1144A126942
:100AB0000243134B1A6104E0114A12698243104B3E
:100AC0001A61704712494039086070470F49C8647D
:100AD00070470B49C87170470948406A40F0807000
:100AE00007494862704701460020054A92680A405B
:100AF0000AB1012000E00020704701498872704768
:100B0000001002400000FFF8FFFFF6FE0000424226
:100B10008004424200127A0000093D0014000020C7
:100B20002400002010B50446FB48844209D101216D
:100B30008803FFF7ADFF00214FF48040FFF7A8FFC7
:100B400032E0F648844209D101214804FFF7ADFFA5
:100B500000214FF40030FFF7A8FF25E0F048844261
:100B600009D101218804FFF7A0FF00214FF4802064
:100B7000FFF79BFF18E0EB48844209D10121C8042C
:100B8000FFF793FF00214FF40020FFF78EFF0BE0EB
:100B9000E548844208D101210805FFF786FF0021BE
:100BA0004FF48010FFF781FF10BD2DE9F04786B0AC
:100BB00005460E460024A24600BFA1460027B08984
:100BC00000B100BF2F462C8A4CF6FF700440F0881D
:100BD00004432C82AC894EF6F3100440B08831896E
:100BE0000843718908430443AC81AC8A4FF6FF4047
:100BF0000440B0890443AC8201A8FFF7C2FEC64896
:100C0000874202D1DDF810A001E0DDF80CA0A88930
:100C100000F4004040B10AEBCA0000EB0A10316852
:100C20004900B0FBF1F807E00AEBCA0000EB0A103C
:100C300031688900B0FBF1F86420B8FBF0F00401E2
:100C40002009642101FB1089A88900F4004040B10B
:100C5000322000EBC900B0FBF1F000F007000443C4
:100C600008E0322000EB09106421B0FBF1F000F045
:100C70000F0004432C8106B0BDE8F0874FF41651F5
:100C8000016000218180C18001810C21418100210E
:100C90008181704710B502460020108A4FF2FF0391
:100CA00018400B884C8823438C882343CC882343EB
:100CB0001843108210BD0021018041808180C180D5
:100CC000704721B1828942F40052828104E0828916
:100CD0004DF6FF731A4082817047F0B50346002439
:100CE00000260025002040F66A17B94200D100BF57
:100CF0001846C1F3421401F01F06012707FA06F552
:100D0000012C01D10C3004E0022C01D1103000E0A4
:100D100014301AB107682F43076002E00768AF4339
:100D20000760F0BD1AB1838A0B43838202E0838A95
:100D30008B4383827047028A4FF6F0731A40028217
:100D4000028A0A430282704782894FF2FF731A4077
:100D5000828182890A438281704721B1828942F06F
:100D60000202828104E082894FF6FD731A4082817B
:100D70007047028A4FF6DF731A400282028A0A43E2
:100D80000282704721B1028A42F48042028204E06A
:100D9000028A4BF6FF731A4002827047C1F30802C1
:100DA0008280704701468888C0F3080070478189B7
:100DB00041F0010181817047028BD2B20283028B24
:100DC00042EA012202837047028B02F47F420283CF
:100DD000028B0A430283704721B1828A42F02002CB
:100DE000828204E0828A4FF6DF731A408282704763
:100DF00021B1828A42F01002828204E0828A4FF698
:100E0000EF731A408282704721B1828A42F0080251
:100E1000828204E0828A4FF6F7731A40828270471A
:100E200021B1828942F40042828103E08289C2F3C7
:100E30000E028281704721B1828A42F4006282826E
:100E400004E0828A4FF2FF731A4082827047828ADE
:100E50004FF6FB731A408282828A0A43828270476D
:100E600021B1828A42F00202828204E0828A4FF635
:100E7000FD731A408282704702460020B1F5007F60
:100E800000D100BF13880B400BB1012000E000200F
:100E9000704701F40072B2F5007F00D100BFCA4371
:100EA0000280704770B50246002400230025002010
:100EB00040F66A16B14200D100BFC1F3421501F0FD
:100EC0001F03012606FA03F3012D02D19689334050
:100ED00006E0022D02D1168A334001E0968A3340A3
:100EE0000C12012606FA04F41688344013B10CB132
:100EF000012000E0002070BD10B50022002340F664
:100F00006A14A14200D100BF0A1201249440A3B286
:100F1000DC43048010BD0000003801400044004064
:100F200000480040004C00400050004010B504460E
:100F30000020606020600A20A06000F07BFAE06082
:100F4000E06810B94FF0FF3010BD0020FCE701460B
:100F500011B96FF0010070474868401C0A2290FBED
:100F6000F2F302FB13000A68904202D16FF0020014
:100F7000F1E76FF00300EEE730B504460D4614B913
:100F80006FF0010030BD2046FFF7E1FF001D60B9A2
:100F90006168E06845546068401C0A2190FBF1F2EA
:100FA00001FB120060600020ECE76FF00400E9E74D
:100FB000014611B96FF001007047D1E9002090425D
:100FC00002D16FF00500F7E76FF00600F4E710B507
:100FD00003460C4613B96FF0010010BD1846FFF729
:100FE000E7FFC01D68B91968D868405C20701868B0
:100FF000401C0A2190FBF1F201FB12001860002056
:10100000EBE76FF00400E8E70F481049086000F0D4
:101010002BF800F089F900F0B1F900F0E2F800F0E7
:1010200063F80FE000F042F800F04CF84FF4FA706B
:1010300000F073F800F040F800F04AF84FF4FA704E
:1010400000F06BF8EEE700000000010808ED00E09A
:10105000704700BFFEE700BFFEE700BFFEE700BF2E
:10106000FEE770477047000008B501210820FFF730
:10107000F5FC10208DF803002020ADF800000320BF
:101080008DF8020069461748FFF72CFA0220ADF8E8
:10109000000069461348FFF725FA20211148FFF7A1
:1010A000CEFA02210F48FFF7CAFA08BD10B5202179
:1010B0000C48FFF7C6FA10BD10B520210948FFF70C
:1010C000BEFA10BD10B502210648FFF7BAFA10BDEE
:1010D00010B502210348FFF7B2FA10BDC2684A40BA
:1010E000C2607047000C014010B56FF00400FFF7BC
:1010F0007AF92E4800682E49B0FBF1F02D490870AE
:101100000846007800EB4001C1EBC0104FF6FF71BC
:1011100001EAC0002849088010BD0146264A12880D
:101120004A434FF0E0235A6100229A611A4612693D
:1011300042F001021A6100BF4FF0E022106900F096
:1011400001021AB100F48032002AF5D04FF0E022FB
:10115000126922F001024FF0E0231A6100229A6125
:1011600070470146134A12784A434FF0E0235A6110
:1011700000229A611A46126942F001021A6100BF08
:101180004FF0E022106900F001021AB100F4803241
:10119000002AF5D04FF0E022126922F001024FF050
:1011A000E0231A6100229A617047000000000020CD
:1011B00000127A00280000202A00002008B54FF411
:1011C000A060FFF7C1F825208DF8000001208DF800
:1011D00001008DF802008DF803006846FFF7B9F8AA
:1011E00008BD00B585B001210420FFF737FC0121BF
:1011F0008803FFF733FC18208DF813004FF40070BC
:10120000ADF8100003208DF8120004A94348FFF741
:1012100069F904208DF813000002ADF810000320D6
:101220008DF8120004A93D48FFF75CF94FF4E13056
:1012300000900020ADF80C000C20ADF80A00002052
:10124000ADF80800ADF80600ADF804006946344872
:10125000FFF7ABFCFFF7B2FF012240F22551304807
:10126000FFF73BFD01212E48FFF72BFD05B000BD28
:1012700070B504460D4629462046FFF78FFD00BF96
:1012800080212046FFF7F8FD0028F9D070BD70B529
:1012900006460C46002500BF615D3046FFF7E8FFBB
:1012A0006D1C605D0028F7D100BF40213046FFF77C
:1012B000E3FD0028F9D070BD70B504460D46E1B2DB
:1012C0001748FFF76BFD00BF80211548FFF7D4FDDD
:1012D0000028F9D0204670BD10B5044600BF20217B
:1012E0000F48FFF7C9FD0028F9D00D48FFF75AFD58
:1012F00010BD10B540F225510948FFF7D3FD60B18C
:1013000040F225510648FFF7F7FD0548FFF74AFD73
:10131000C4B221460348FFF72FFE10BD000801406C
:10132000003801403400002008B501211020FFF7EB
:1013300095FB10208DF803000120ADF8000003207C
:101340008DF8020069460C48FFF7CCF801210A48E5
:10135000FFF777F908BD10B501210748FFF76FF9CE
:1013600010BD10B501210448FFF76BF910BDC2682C
:101370004A40C260704700000010014008B50121DA
:101380001420FFF76BFB04208DF803000120ADF85B
:10139000000003208DF8020069461348FFF7A2F809
:1013A0004FF40050ADF8000069461048FFF79AF876
:1013B00008BD70B504460D4629462046FFF725F9BD
:1013C000012808D100BF29462046FFF71EF9012851
:1013D000F9D0012070BD0020FCE710B501210248C2
:1013E000FFF713F910BD0000000801400010014094
:1013F000064C074D06E0E06840F0010394E8070062
:1014000098471034AC42F6D3FEF796FEA0140108BC
:10141000C014010802E008C8121F08C1002AFAD14E
:1014200070477047002001E001C1121F002AFBD164
:1014300070470000F0B50B30154D20F00701002477
:10144000144A0FE003688B420BD38B4205D95E1A16
:1014500043184768C3E9006700E04368136002C0AF
:1014600004E0021D10680028ECD12046002802D1BB
:10147000286808B10020F0BD064A07481060074AF6
:10148000121A22F00702C0E9002401202860D7E7E1
:10149000300000202C0000204C00002048020020DA
:1014A000C0140108000000203400000014140108DA
:1014B000F41401083400002014060000241401086C
:1014C00000A24A0400000000000000000102030422
:1014D00006070809000000000102030401020304DA
:1014E00006070809020406080000000000000000CA
:0414F00000000000F8
:0400000508010131BC
:00000001FF
