Component: ARM Compiler 5.06 update 3 (build 300) Tool: armlink [4d35c9]

==============================================================================

Section Cross References

    startup_stm32f10x_hd.o(RESET) refers to startup_stm32f10x_hd.o(STACK) for __initial_sp
    startup_stm32f10x_hd.o(RESET) refers to startup_stm32f10x_hd.o(.text) for Reset_Handler
    startup_stm32f10x_hd.o(RESET) refers to stm32f10x_it.o(.text) for NMI_Handler
    startup_stm32f10x_hd.o(RESET) refers to bsp_usart.o(.text) for USART1_IRQHandler
    startup_stm32f10x_hd.o(.text) refers to system_stm32f10x.o(.text) for SystemInit
    startup_stm32f10x_hd.o(.text) refers to entry.o(.ARM.Collect$$$$00000000) for __main
    system_stm32f10x.o(.text) refers to system_stm32f10x.o(.data) for SystemCoreClock
    stm32f10x_adc.o(.text) refers to stm32f10x_rcc.o(.text) for RCC_APB2PeriphResetCmd
    stm32f10x_bkp.o(.text) refers to stm32f10x_rcc.o(.text) for RCC_BackupResetCmd
    stm32f10x_can.o(.text) refers to stm32f10x_rcc.o(.text) for RCC_APB1PeriphResetCmd
    stm32f10x_cec.o(.text) refers to stm32f10x_rcc.o(.text) for RCC_APB1PeriphResetCmd
    stm32f10x_dac.o(.text) refers to stm32f10x_rcc.o(.text) for RCC_APB1PeriphResetCmd
    stm32f10x_gpio.o(.text) refers to stm32f10x_rcc.o(.text) for RCC_APB2PeriphResetCmd
    stm32f10x_i2c.o(.text) refers to stm32f10x_rcc.o(.text) for RCC_APB1PeriphResetCmd
    stm32f10x_pwr.o(.text) refers to stm32f10x_rcc.o(.text) for RCC_APB1PeriphResetCmd
    stm32f10x_rcc.o(.text) refers to stm32f10x_rcc.o(.data) for APBAHBPrescTable
    stm32f10x_spi.o(.text) refers to stm32f10x_rcc.o(.text) for RCC_APB2PeriphResetCmd
    stm32f10x_tim.o(.text) refers to stm32f10x_rcc.o(.text) for RCC_APB2PeriphResetCmd
==============================================================================

Removing Unused input sections from the image.

    Removing core_cm3.o(.emb_text), (32 bytes).
    Removing stm32f10x_adc.o(.text), (1102 bytes).
    Removing stm32f10x_bkp.o(.text), (196 bytes).
    Removing stm32f10x_can.o(.text), (2544 bytes).
    Removing stm32f10x_cec.o(.text), (288 bytes).
    Removing stm32f10x_crc.o(.text), (72 bytes).
    Removing stm32f10x_dac.o(.text), (396 bytes).
    Removing stm32f10x_dbgmcu.o(.text), (48 bytes).
    Removing stm32f10x_dma.o(.text), (596 bytes).
    Removing stm32f10x_exti.o(.text), (284 bytes).
    Removing stm32f10x_flash.o(.text), (1468 bytes).
    Removing stm32f10x_fsmc.o(.text), (1548 bytes).
    Removing stm32f10x_i2c.o(.text), (1028 bytes).
    Removing stm32f10x_iwdg.o(.text), (64 bytes).
    Removing stm32f10x_pwr.o(.text), (204 bytes).
    Removing stm32f10x_rtc.o(.text), (328 bytes).
    Removing stm32f10x_sdio.o(.text), (468 bytes).
    Removing stm32f10x_spi.o(.text), (780 bytes).
==============================================================================

Image Symbol Table

    Local Symbols

    Symbol Name                              Value     Ov Type        Size  Object(Section)

    ../clib/microlib/init/entry.s            0x00000000   Number         0  entry7a.o ABSOLUTE
    ../clib/microlib/init/entry.s            0x00000000   Number         0  entry11a.o ABSOLUTE
    ../clib/microlib/init/entry.s            0x00000000   Number         0  entry5.o ABSOLUTE
    ../clib/microlib/init/entry.s            0x00000000   Number         0  entry2.o ABSOLUTE
    ../clib/microlib/init/entry.s            0x00000000   Number         0  entry11b.o ABSOLUTE
    ../clib/microlib/init/entry.s            0x00000000   Number         0  entry10b.o ABSOLUTE
    ../clib/microlib/init/entry.s            0x00000000   Number         0  entry10a.o ABSOLUTE
    ../clib/microlib/init/entry.s            0x00000000   Number         0  entry9a.o ABSOLUTE
    ../clib/microlib/init/entry.s            0x00000000   Number         0  entry8b.o ABSOLUTE
    ../clib/microlib/init/entry.s            0x00000000   Number         0  entry8a.o ABSOLUTE
    ../clib/microlib/init/entry.s            0x00000000   Number         0  entry7b.o ABSOLUTE
    ../clib/microlib/init/entry.s            0x00000000   Number         0  entry9b.o ABSOLUTE
    ../clib/microlib/init/entry.s            0x00000000   Number         0  entry.o ABSOLUTE
    ../clib/microlib/malloc/malloc.c         0x00000000   Number         0  malloc.o ABSOLUTE
    ../clib/microlib/malloc/malloc.c         0x00000000   Number         0  mallocra.o ABSOLUTE
    ../clib/microlib/malloc/malloc.c         0x00000000   Number         0  malloca.o ABSOLUTE
    ../clib/microlib/malloc/malloc.c         0x00000000   Number         0  mallocr.o ABSOLUTE
    ../clib/microlib/malloc/mvars.c          0x00000000   Number         0  mvars.o ABSOLUTE
    ../clib/microlib/string/memcpy.c         0x00000000   Number         0  memcpyb.o ABSOLUTE
    ../clib/microlib/string/memcpy.c         0x00000000   Number         0  memcpya.o ABSOLUTE
    ../clib/microlib/string/memset.c         0x00000000   Number         0  memseta.o ABSOLUTE
    ../clib/microlib/string/strcmp.c         0x00000000   Number         0  strcmp.o ABSOLUTE
    ..\..\APP\app.c                          0x00000000   Number         0  app.o ABSOLUTE
    ..\..\BSP\beep\bsp_beep.c                0x00000000   Number         0  bsp_beep.o ABSOLUTE
    ..\..\BSP\dht11\bsp_dht11.c              0x00000000   Number         0  bsp_dht11.o ABSOLUTE
    ..\..\BSP\key\bsp_key.c                  0x00000000   Number         0  bsp_key.o ABSOLUTE
    ..\..\BSP\led\bsp_led.c                  0x00000000   Number         0  bsp_led.o ABSOLUTE
    ..\..\BSP\oled\bsp_oled.c                0x00000000   Number         0  bsp_oled.o ABSOLUTE
    ..\..\BSP\systick\bsp_systick.c          0x00000000   Number         0  bsp_systick.o ABSOLUTE
    ..\..\BSP\usart\bsp_usart.c              0x00000000   Number         0  bsp_usart.o ABSOLUTE
    ..\..\Libraries\CMSIS\core_cm3.c         0x00000000   Number         0  core_cm3.o ABSOLUTE
    ..\..\Libraries\CMSIS\startup\startup_stm32f10x_hd.s 0x00000000   Number         0  startup_stm32f10x_hd.o ABSOLUTE
    ..\..\Libraries\CMSIS\system_stm32f10x.c 0x00000000   Number         0  system_stm32f10x.o ABSOLUTE
    ..\..\Libraries\FWlib\src\misc.c         0x00000000   Number         0  misc.o ABSOLUTE
    ..\..\Libraries\FWlib\src\stm32f10x_adc.c 0x00000000   Number         0  stm32f10x_adc.o ABSOLUTE
    ..\..\Libraries\FWlib\src\stm32f10x_bkp.c 0x00000000   Number         0  stm32f10x_bkp.o ABSOLUTE
    ..\..\Libraries\FWlib\src\stm32f10x_can.c 0x00000000   Number         0  stm32f10x_can.o ABSOLUTE
    ..\..\Libraries\FWlib\src\stm32f10x_cec.c 0x00000000   Number         0  stm32f10x_cec.o ABSOLUTE
    ..\..\Libraries\FWlib\src\stm32f10x_crc.c 0x00000000   Number         0  stm32f10x_crc.o ABSOLUTE
    ..\..\Libraries\FWlib\src\stm32f10x_dac.c 0x00000000   Number         0  stm32f10x_dac.o ABSOLUTE
    ..\..\Libraries\FWlib\src\stm32f10x_dbgmcu.c 0x00000000   Number         0  stm32f10x_dbgmcu.o ABSOLUTE
    ..\..\Libraries\FWlib\src\stm32f10x_dma.c 0x00000000   Number         0  stm32f10x_dma.o ABSOLUTE
    ..\..\Libraries\FWlib\src\stm32f10x_exti.c 0x00000000   Number         0  stm32f10x_exti.o ABSOLUTE
    ..\..\Libraries\FWlib\src\stm32f10x_flash.c 0x00000000   Number         0  stm32f10x_flash.o ABSOLUTE
    ..\..\Libraries\FWlib\src\stm32f10x_fsmc.c 0x00000000   Number         0  stm32f10x_fsmc.o ABSOLUTE
    ..\..\Libraries\FWlib\src\stm32f10x_gpio.c 0x00000000   Number         0  stm32f10x_gpio.o ABSOLUTE
    ..\..\Libraries\FWlib\src\stm32f10x_i2c.c 0x00000000   Number         0  stm32f10x_i2c.o ABSOLUTE
    ..\..\Libraries\FWlib\src\stm32f10x_iwdg.c 0x00000000   Number         0  stm32f10x_iwdg.o ABSOLUTE
    ..\..\Libraries\FWlib\src\stm32f10x_pwr.c 0x00000000   Number         0  stm32f10x_pwr.o ABSOLUTE
    ..\..\Libraries\FWlib\src\stm32f10x_rcc.c 0x00000000   Number         0  stm32f10x_rcc.o ABSOLUTE
    ..\..\Libraries\FWlib\src\stm32f10x_rtc.c 0x00000000   Number         0  stm32f10x_rtc.o ABSOLUTE
    ..\..\Libraries\FWlib\src\stm32f10x_sdio.c 0x00000000   Number         0  stm32f10x_sdio.o ABSOLUTE
    ..\..\Libraries\FWlib\src\stm32f10x_spi.c 0x00000000   Number         0  stm32f10x_spi.o ABSOLUTE
    ..\..\Libraries\FWlib\src\stm32f10x_tim.c 0x00000000   Number         0  stm32f10x_tim.o ABSOLUTE
    ..\..\Libraries\FWlib\src\stm32f10x_usart.c 0x00000000   Number         0  stm32f10x_usart.o ABSOLUTE
    ..\..\Libraries\FWlib\src\stm32f10x_wwdg.c 0x00000000   Number         0  stm32f10x_wwdg.o ABSOLUTE
    ..\..\Middleware\MultiButton\multi_button.c 0x00000000   Number         0  multi_button.o ABSOLUTE
    ..\..\Middleware\ring_buf\ring_buf.c     0x00000000   Number         0  ring_buf.o ABSOLUTE
    ..\..\User\main.c                        0x00000000   Number         0  main.o ABSOLUTE
    ..\..\User\stm32f10x_it.c                0x00000000   Number         0  stm32f10x_it.o ABSOLUTE
    ..\\..\\Libraries\\CMSIS\\core_cm3.c     0x00000000   Number         0  core_cm3.o ABSOLUTE
    dc.s                                     0x00000000   Number         0  dc.o ABSOLUTE
    handlers.s                               0x00000000   Number         0  handlers.o ABSOLUTE
    init.s                                   0x00000000   Number         0  init.o ABSOLUTE
    RESET                                    0x08010000   Section      304  startup_stm32f10x_hd.o(RESET)
    .ARM.Collect$$$$00000000                 0x08010130   Section        0  entry.o(.ARM.Collect$$$$00000000)
    .ARM.Collect$$$$00000001                 0x08010130   Section        4  entry2.o(.ARM.Collect$$$$00000001)
    .ARM.Collect$$$$00000004                 0x08010134   Section        4  entry5.o(.ARM.Collect$$$$00000004)
    .ARM.Collect$$$$00000008                 0x08010138   Section        0  entry7b.o(.ARM.Collect$$$$00000008)
    .ARM.Collect$$$$0000000A                 0x08010138   Section        0  entry8b.o(.ARM.Collect$$$$0000000A)
    .ARM.Collect$$$$0000000B                 0x08010138   Section        8  entry9a.o(.ARM.Collect$$$$0000000B)
    .ARM.Collect$$$$0000000D                 0x08010140   Section        0  entry10a.o(.ARM.Collect$$$$0000000D)
    .ARM.Collect$$$$0000000F                 0x08010140   Section        0  entry11a.o(.ARM.Collect$$$$0000000F)
    .ARM.Collect$$$$00002712                 0x08010140   Section        4  entry2.o(.ARM.Collect$$$$00002712)
    __lit__00000000                          0x08010140   Data           4  entry2.o(.ARM.Collect$$$$00002712)
    .text                                    0x08010144   Section       36  startup_stm32f10x_hd.o(.text)
    .text                                    0x08010168   Section        0  system_stm32f10x.o(.text)
    SetSysClockTo72                          0x08010169   Thumb Code   214  system_stm32f10x.o(.text)
    SetSysClock                              0x0801023f   Thumb Code     8  system_stm32f10x.o(.text)
    .text                                    0x08010348   Section        0  misc.o(.text)
    .text                                    0x08010424   Section        0  stm32f10x_gpio.o(.text)
    .text                                    0x08010780   Section        0  stm32f10x_rcc.o(.text)
    .text                                    0x08010b24   Section        0  stm32f10x_usart.o(.text)
    .text                                    0x08010f2c   Section        0  ring_buf.o(.text)
    .text                                    0x08011008   Section        0  main.o(.text)
    .text                                    0x08011050   Section        0  stm32f10x_it.o(.text)
    .text                                    0x08011068   Section        0  bsp_led.o(.text)
    .text                                    0x080110e8   Section        0  bsp_systick.o(.text)
    .text                                    0x080111bc   Section        0  bsp_usart.o(.text)
    NVIC_Configuration                       0x080111bd   Thumb Code    38  bsp_usart.o(.text)
    .text                                    0x08011328   Section        0  bsp_beep.o(.text)
    .text                                    0x0801137c   Section        0  bsp_key.o(.text)
    .text                                    0x080113f0   Section       36  init.o(.text)
    i.__scatterload_copy                     0x08011414   Section       14  handlers.o(i.__scatterload_copy)
    i.__scatterload_null                     0x08011422   Section        2  handlers.o(i.__scatterload_null)
    i.__scatterload_zeroinit                 0x08011424   Section       14  handlers.o(i.__scatterload_zeroinit)
    i.malloc                                 0x08011434   Section        0  malloc.o(i.malloc)
    .data                                    0x20000000   Section       20  system_stm32f10x.o(.data)
    .data                                    0x20000014   Section       20  stm32f10x_rcc.o(.data)
    APBAHBPrescTable                         0x20000014   Data          16  stm32f10x_rcc.o(.data)
    ADCPrescTable                            0x20000024   Data           4  stm32f10x_rcc.o(.data)
    .data                                    0x20000028   Section        4  bsp_systick.o(.data)
    fac_us                                   0x20000028   Data           1  bsp_systick.o(.data)
    fac_ms                                   0x2000002a   Data           2  bsp_systick.o(.data)
    .data                                    0x2000002c   Section        4  mvars.o(.data)
    .data                                    0x20000030   Section        4  mvars.o(.data)
    .bss                                     0x20000034   Section       16  app.o(.bss)
    HEAP                                     0x20000048   Section      512  startup_stm32f10x_hd.o(HEAP)
    STACK                                    0x20000248   Section     1024  startup_stm32f10x_hd.o(STACK)

    Global Symbols

    Symbol Name                              Value     Ov Type        Size  Object(Section)

    BuildAttributes$$THM_ISAv4$P$D$K$B$S$PE$A:L22UL41UL21$X:L11$S22US41US21$IEEE1$IW$USESV6$~STKCKD$USESV7$~SHL$OSPACE$EBA8$MICROLIB$REQ8$PRES8$EABIv2 0x00000000   Number         0  anon$$obj.o ABSOLUTE
    __ARM_use_no_argv                        0x00000000   Number         0  main.o ABSOLUTE
    __cpp_initialize__aeabi_                  - Undefined Weak Reference
    __cxa_finalize                            - Undefined Weak Reference
    __decompress                              - Undefined Weak Reference
    _clock_init                               - Undefined Weak Reference
    _microlib_exit                            - Undefined Weak Reference
    __Vectors_Size                           0x00000130   Number         0  startup_stm32f10x_hd.o ABSOLUTE
    __Vectors                                0x08010000   Data           4  startup_stm32f10x_hd.o(RESET)
    __Vectors_End                            0x08010130   Data           0  startup_stm32f10x_hd.o(RESET)
    __main                                   0x08010131   Thumb Code     0  entry.o(.ARM.Collect$$$$00000000)
    _main_stk                                0x08010131   Thumb Code     0  entry2.o(.ARM.Collect$$$$00000001)
    _main_scatterload                        0x08010135   Thumb Code     0  entry5.o(.ARM.Collect$$$$00000004)
    __main_after_scatterload                 0x08010139   Thumb Code     0  entry5.o(.ARM.Collect$$$$00000004)
    _main_clock                              0x08010139   Thumb Code     0  entry7b.o(.ARM.Collect$$$$00000008)
    _main_cpp_init                           0x08010139   Thumb Code     0  entry8b.o(.ARM.Collect$$$$0000000A)
    _main_init                               0x08010139   Thumb Code     0  entry9a.o(.ARM.Collect$$$$0000000B)
    __rt_final_cpp                           0x08010141   Thumb Code     0  entry10a.o(.ARM.Collect$$$$0000000D)
    __rt_final_exit                          0x08010141   Thumb Code     0  entry11a.o(.ARM.Collect$$$$0000000F)
    Reset_Handler                            0x08010145   Thumb Code     8  startup_stm32f10x_hd.o(.text)
    PendSV_Handler                           0x0801015b   Thumb Code     2  startup_stm32f10x_hd.o(.text)
    SysTick_Handler                          0x0801015d   Thumb Code     2  startup_stm32f10x_hd.o(.text)
    ADC1_2_IRQHandler                        0x0801015f   Thumb Code     0  startup_stm32f10x_hd.o(.text)
    ADC3_IRQHandler                          0x0801015f   Thumb Code     0  startup_stm32f10x_hd.o(.text)
    CAN1_RX1_IRQHandler                      0x0801015f   Thumb Code     0  startup_stm32f10x_hd.o(.text)
    CAN1_SCE_IRQHandler                      0x0801015f   Thumb Code     0  startup_stm32f10x_hd.o(.text)
    DMA1_Channel1_IRQHandler                 0x0801015f   Thumb Code     0  startup_stm32f10x_hd.o(.text)
    DMA1_Channel2_IRQHandler                 0x0801015f   Thumb Code     0  startup_stm32f10x_hd.o(.text)
    DMA1_Channel3_IRQHandler                 0x0801015f   Thumb Code     0  startup_stm32f10x_hd.o(.text)
    DMA1_Channel4_IRQHandler                 0x0801015f   Thumb Code     0  startup_stm32f10x_hd.o(.text)
    DMA1_Channel5_IRQHandler                 0x0801015f   Thumb Code     0  startup_stm32f10x_hd.o(.text)
    DMA1_Channel6_IRQHandler                 0x0801015f   Thumb Code     0  startup_stm32f10x_hd.o(.text)
    DMA1_Channel7_IRQHandler                 0x0801015f   Thumb Code     0  startup_stm32f10x_hd.o(.text)
    DMA2_Channel1_IRQHandler                 0x0801015f   Thumb Code     0  startup_stm32f10x_hd.o(.text)
    DMA2_Channel2_IRQHandler                 0x0801015f   Thumb Code     0  startup_stm32f10x_hd.o(.text)
    DMA2_Channel3_IRQHandler                 0x0801015f   Thumb Code     0  startup_stm32f10x_hd.o(.text)
    DMA2_Channel4_5_IRQHandler               0x0801015f   Thumb Code     0  startup_stm32f10x_hd.o(.text)
    EXTI0_IRQHandler                         0x0801015f   Thumb Code     0  startup_stm32f10x_hd.o(.text)
    EXTI15_10_IRQHandler                     0x0801015f   Thumb Code     0  startup_stm32f10x_hd.o(.text)
    EXTI1_IRQHandler                         0x0801015f   Thumb Code     0  startup_stm32f10x_hd.o(.text)
    EXTI2_IRQHandler                         0x0801015f   Thumb Code     0  startup_stm32f10x_hd.o(.text)
    EXTI3_IRQHandler                         0x0801015f   Thumb Code     0  startup_stm32f10x_hd.o(.text)
    EXTI4_IRQHandler                         0x0801015f   Thumb Code     0  startup_stm32f10x_hd.o(.text)
    EXTI9_5_IRQHandler                       0x0801015f   Thumb Code     0  startup_stm32f10x_hd.o(.text)
    FLASH_IRQHandler                         0x0801015f   Thumb Code     0  startup_stm32f10x_hd.o(.text)
    FSMC_IRQHandler                          0x0801015f   Thumb Code     0  startup_stm32f10x_hd.o(.text)
    I2C1_ER_IRQHandler                       0x0801015f   Thumb Code     0  startup_stm32f10x_hd.o(.text)
    I2C1_EV_IRQHandler                       0x0801015f   Thumb Code     0  startup_stm32f10x_hd.o(.text)
    I2C2_ER_IRQHandler                       0x0801015f   Thumb Code     0  startup_stm32f10x_hd.o(.text)
    I2C2_EV_IRQHandler                       0x0801015f   Thumb Code     0  startup_stm32f10x_hd.o(.text)
    PVD_IRQHandler                           0x0801015f   Thumb Code     0  startup_stm32f10x_hd.o(.text)
    RCC_IRQHandler                           0x0801015f   Thumb Code     0  startup_stm32f10x_hd.o(.text)
    RTCAlarm_IRQHandler                      0x0801015f   Thumb Code     0  startup_stm32f10x_hd.o(.text)
    RTC_IRQHandler                           0x0801015f   Thumb Code     0  startup_stm32f10x_hd.o(.text)
    SDIO_IRQHandler                          0x0801015f   Thumb Code     0  startup_stm32f10x_hd.o(.text)
    SPI1_IRQHandler                          0x0801015f   Thumb Code     0  startup_stm32f10x_hd.o(.text)
    SPI2_IRQHandler                          0x0801015f   Thumb Code     0  startup_stm32f10x_hd.o(.text)
    SPI3_IRQHandler                          0x0801015f   Thumb Code     0  startup_stm32f10x_hd.o(.text)
    TAMPER_IRQHandler                        0x0801015f   Thumb Code     0  startup_stm32f10x_hd.o(.text)
    TIM1_BRK_IRQHandler                      0x0801015f   Thumb Code     0  startup_stm32f10x_hd.o(.text)
    TIM1_CC_IRQHandler                       0x0801015f   Thumb Code     0  startup_stm32f10x_hd.o(.text)
    TIM1_TRG_COM_IRQHandler                  0x0801015f   Thumb Code     0  startup_stm32f10x_hd.o(.text)
    TIM1_UP_IRQHandler                       0x0801015f   Thumb Code     0  startup_stm32f10x_hd.o(.text)
    TIM2_IRQHandler                          0x0801015f   Thumb Code     0  startup_stm32f10x_hd.o(.text)
    TIM3_IRQHandler                          0x0801015f   Thumb Code     0  startup_stm32f10x_hd.o(.text)
    TIM4_IRQHandler                          0x0801015f   Thumb Code     0  startup_stm32f10x_hd.o(.text)
    TIM5_IRQHandler                          0x0801015f   Thumb Code     0  startup_stm32f10x_hd.o(.text)
    TIM6_IRQHandler                          0x0801015f   Thumb Code     0  startup_stm32f10x_hd.o(.text)
    TIM7_IRQHandler                          0x0801015f   Thumb Code     0  startup_stm32f10x_hd.o(.text)
    TIM8_BRK_IRQHandler                      0x0801015f   Thumb Code     0  startup_stm32f10x_hd.o(.text)
    TIM8_CC_IRQHandler                       0x0801015f   Thumb Code     0  startup_stm32f10x_hd.o(.text)
    TIM8_TRG_COM_IRQHandler                  0x0801015f   Thumb Code     0  startup_stm32f10x_hd.o(.text)
    TIM8_UP_IRQHandler                       0x0801015f   Thumb Code     0  startup_stm32f10x_hd.o(.text)
    UART4_IRQHandler                         0x0801015f   Thumb Code     0  startup_stm32f10x_hd.o(.text)
    UART5_IRQHandler                         0x0801015f   Thumb Code     0  startup_stm32f10x_hd.o(.text)
    USART2_IRQHandler                        0x0801015f   Thumb Code     0  startup_stm32f10x_hd.o(.text)
    USART3_IRQHandler                        0x0801015f   Thumb Code     0  startup_stm32f10x_hd.o(.text)
    USBWakeUp_IRQHandler                     0x0801015f   Thumb Code     0  startup_stm32f10x_hd.o(.text)
    USB_HP_CAN1_TX_IRQHandler                0x0801015f   Thumb Code     0  startup_stm32f10x_hd.o(.text)
    USB_LP_CAN1_RX0_IRQHandler               0x0801015f   Thumb Code     0  startup_stm32f10x_hd.o(.text)
    WWDG_IRQHandler                          0x0801015f   Thumb Code     0  startup_stm32f10x_hd.o(.text)
    SystemInit                               0x08010247   Thumb Code    76  system_stm32f10x.o(.text)
    SystemCoreClockUpdate                    0x08010293   Thumb Code   142  system_stm32f10x.o(.text)
    NVIC_PriorityGroupConfig                 0x08010349   Thumb Code    10  misc.o(.text)
    NVIC_Init                                0x08010353   Thumb Code   100  misc.o(.text)
    NVIC_SetVectorTable                      0x080103b7   Thumb Code    14  misc.o(.text)
    NVIC_SystemLPConfig                      0x080103c5   Thumb Code    34  misc.o(.text)
    SysTick_CLKSourceConfig                  0x080103e7   Thumb Code    40  misc.o(.text)
    GPIO_DeInit                              0x08010425   Thumb Code   172  stm32f10x_gpio.o(.text)
    GPIO_AFIODeInit                          0x080104d1   Thumb Code    20  stm32f10x_gpio.o(.text)
    GPIO_Init                                0x080104e5   Thumb Code   278  stm32f10x_gpio.o(.text)
    GPIO_StructInit                          0x080105fb   Thumb Code    16  stm32f10x_gpio.o(.text)
    GPIO_ReadInputDataBit                    0x0801060b   Thumb Code    18  stm32f10x_gpio.o(.text)
    GPIO_ReadInputData                       0x0801061d   Thumb Code     8  stm32f10x_gpio.o(.text)
    GPIO_ReadOutputDataBit                   0x08010625   Thumb Code    18  stm32f10x_gpio.o(.text)
    GPIO_ReadOutputData                      0x08010637   Thumb Code     8  stm32f10x_gpio.o(.text)
    GPIO_SetBits                             0x0801063f   Thumb Code     4  stm32f10x_gpio.o(.text)
    GPIO_ResetBits                           0x08010643   Thumb Code     4  stm32f10x_gpio.o(.text)
    GPIO_WriteBit                            0x08010647   Thumb Code    10  stm32f10x_gpio.o(.text)
    GPIO_Write                               0x08010651   Thumb Code     4  stm32f10x_gpio.o(.text)
    GPIO_PinLockConfig                       0x08010655   Thumb Code    18  stm32f10x_gpio.o(.text)
    GPIO_EventOutputConfig                   0x08010667   Thumb Code    26  stm32f10x_gpio.o(.text)
    GPIO_EventOutputCmd                      0x08010681   Thumb Code     6  stm32f10x_gpio.o(.text)
    GPIO_PinRemapConfig                      0x08010687   Thumb Code   138  stm32f10x_gpio.o(.text)
    GPIO_EXTILineConfig                      0x08010711   Thumb Code    66  stm32f10x_gpio.o(.text)
    GPIO_ETH_MediaInterfaceConfig            0x08010753   Thumb Code     8  stm32f10x_gpio.o(.text)
    RCC_DeInit                               0x08010781   Thumb Code    64  stm32f10x_rcc.o(.text)
    RCC_HSEConfig                            0x080107c1   Thumb Code    70  stm32f10x_rcc.o(.text)
    RCC_GetFlagStatus                        0x08010807   Thumb Code    56  stm32f10x_rcc.o(.text)
    RCC_WaitForHSEStartUp                    0x0801083f   Thumb Code    56  stm32f10x_rcc.o(.text)
    RCC_AdjustHSICalibrationValue            0x08010877   Thumb Code    20  stm32f10x_rcc.o(.text)
    RCC_HSICmd                               0x0801088b   Thumb Code     6  stm32f10x_rcc.o(.text)
    RCC_PLLConfig                            0x08010891   Thumb Code    24  stm32f10x_rcc.o(.text)
    RCC_PLLCmd                               0x080108a9   Thumb Code     6  stm32f10x_rcc.o(.text)
    RCC_SYSCLKConfig                         0x080108af   Thumb Code    18  stm32f10x_rcc.o(.text)
    RCC_GetSYSCLKSource                      0x080108c1   Thumb Code    10  stm32f10x_rcc.o(.text)
    RCC_HCLKConfig                           0x080108cb   Thumb Code    18  stm32f10x_rcc.o(.text)
    RCC_PCLK1Config                          0x080108dd   Thumb Code    18  stm32f10x_rcc.o(.text)
    RCC_PCLK2Config                          0x080108ef   Thumb Code    20  stm32f10x_rcc.o(.text)
    RCC_ITConfig                             0x08010903   Thumb Code    26  stm32f10x_rcc.o(.text)
    RCC_USBCLKConfig                         0x0801091d   Thumb Code     8  stm32f10x_rcc.o(.text)
    RCC_ADCCLKConfig                         0x08010925   Thumb Code    18  stm32f10x_rcc.o(.text)
    RCC_LSEConfig                            0x08010937   Thumb Code    50  stm32f10x_rcc.o(.text)
    RCC_LSICmd                               0x08010969   Thumb Code     6  stm32f10x_rcc.o(.text)
    RCC_RTCCLKConfig                         0x0801096f   Thumb Code    12  stm32f10x_rcc.o(.text)
    RCC_RTCCLKCmd                            0x0801097b   Thumb Code     8  stm32f10x_rcc.o(.text)
    RCC_GetClocksFreq                        0x08010983   Thumb Code   192  stm32f10x_rcc.o(.text)
    RCC_AHBPeriphClockCmd                    0x08010a43   Thumb Code    26  stm32f10x_rcc.o(.text)
    RCC_APB2PeriphClockCmd                   0x08010a5d   Thumb Code    26  stm32f10x_rcc.o(.text)
    RCC_APB1PeriphClockCmd                   0x08010a77   Thumb Code    26  stm32f10x_rcc.o(.text)
    RCC_APB2PeriphResetCmd                   0x08010a91   Thumb Code    26  stm32f10x_rcc.o(.text)
    RCC_APB1PeriphResetCmd                   0x08010aab   Thumb Code    26  stm32f10x_rcc.o(.text)
    RCC_BackupResetCmd                       0x08010ac5   Thumb Code     8  stm32f10x_rcc.o(.text)
    RCC_ClockSecuritySystemCmd               0x08010acd   Thumb Code     6  stm32f10x_rcc.o(.text)
    RCC_MCOConfig                            0x08010ad3   Thumb Code     6  stm32f10x_rcc.o(.text)
    RCC_ClearFlag                            0x08010ad9   Thumb Code    14  stm32f10x_rcc.o(.text)
    RCC_GetITStatus                          0x08010ae7   Thumb Code    20  stm32f10x_rcc.o(.text)
    RCC_ClearITPendingBit                    0x08010afb   Thumb Code     6  stm32f10x_rcc.o(.text)
    USART_DeInit                             0x08010b25   Thumb Code   134  stm32f10x_usart.o(.text)
    USART_Init                               0x08010bab   Thumb Code   210  stm32f10x_usart.o(.text)
    USART_StructInit                         0x08010c7d   Thumb Code    24  stm32f10x_usart.o(.text)
    USART_ClockInit                          0x08010c95   Thumb Code    34  stm32f10x_usart.o(.text)
    USART_ClockStructInit                    0x08010cb7   Thumb Code    12  stm32f10x_usart.o(.text)
    USART_Cmd                                0x08010cc3   Thumb Code    24  stm32f10x_usart.o(.text)
    USART_ITConfig                           0x08010cdb   Thumb Code    74  stm32f10x_usart.o(.text)
    USART_DMACmd                             0x08010d25   Thumb Code    18  stm32f10x_usart.o(.text)
    USART_SetAddress                         0x08010d37   Thumb Code    18  stm32f10x_usart.o(.text)
    USART_WakeUpConfig                       0x08010d49   Thumb Code    18  stm32f10x_usart.o(.text)
    USART_ReceiverWakeUpCmd                  0x08010d5b   Thumb Code    24  stm32f10x_usart.o(.text)
    USART_LINBreakDetectLengthConfig         0x08010d73   Thumb Code    18  stm32f10x_usart.o(.text)
    USART_LINCmd                             0x08010d85   Thumb Code    24  stm32f10x_usart.o(.text)
    USART_SendData                           0x08010d9d   Thumb Code     8  stm32f10x_usart.o(.text)
    USART_ReceiveData                        0x08010da5   Thumb Code    10  stm32f10x_usart.o(.text)
    USART_SendBreak                          0x08010daf   Thumb Code    10  stm32f10x_usart.o(.text)
    USART_SetGuardTime                       0x08010db9   Thumb Code    16  stm32f10x_usart.o(.text)
    USART_SetPrescaler                       0x08010dc9   Thumb Code    16  stm32f10x_usart.o(.text)
    USART_SmartCardCmd                       0x08010dd9   Thumb Code    24  stm32f10x_usart.o(.text)
    USART_SmartCardNACKCmd                   0x08010df1   Thumb Code    24  stm32f10x_usart.o(.text)
    USART_HalfDuplexCmd                      0x08010e09   Thumb Code    24  stm32f10x_usart.o(.text)
    USART_OverSampling8Cmd                   0x08010e21   Thumb Code    22  stm32f10x_usart.o(.text)
    USART_OneBitMethodCmd                    0x08010e37   Thumb Code    24  stm32f10x_usart.o(.text)
    USART_IrDAConfig                         0x08010e4f   Thumb Code    18  stm32f10x_usart.o(.text)
    USART_IrDACmd                            0x08010e61   Thumb Code    24  stm32f10x_usart.o(.text)
    USART_GetFlagStatus                      0x08010e79   Thumb Code    26  stm32f10x_usart.o(.text)
    USART_ClearFlag                          0x08010e93   Thumb Code    18  stm32f10x_usart.o(.text)
    USART_GetITStatus                        0x08010ea5   Thumb Code    84  stm32f10x_usart.o(.text)
    USART_ClearITPendingBit                  0x08010ef9   Thumb Code    52  stm32f10x_usart.o(.text)
    ring_buf_init                            0x08010f2d   Thumb Code    34  ring_buf.o(.text)
    is_ring_buf_full                         0x08010f4f   Thumb Code    42  ring_buf.o(.text)
    add_to_ring_buf                          0x08010f79   Thumb Code    56  ring_buf.o(.text)
    is_ring_buf_empty                        0x08010fb1   Thumb Code    30  ring_buf.o(.text)
    remove_from_ring_buf                     0x08010fcf   Thumb Code    58  ring_buf.o(.text)
    main                                     0x08011009   Thumb Code    62  main.o(.text)
    NMI_Handler                              0x08011051   Thumb Code     2  stm32f10x_it.o(.text)
    HardFault_Handler                        0x08011053   Thumb Code     4  stm32f10x_it.o(.text)
    MemManage_Handler                        0x08011057   Thumb Code     4  stm32f10x_it.o(.text)
    BusFault_Handler                         0x0801105b   Thumb Code     4  stm32f10x_it.o(.text)
    UsageFault_Handler                       0x0801105f   Thumb Code     4  stm32f10x_it.o(.text)
    SVC_Handler                              0x08011063   Thumb Code     2  stm32f10x_it.o(.text)
    DebugMon_Handler                         0x08011065   Thumb Code     2  stm32f10x_it.o(.text)
    led_init                                 0x08011069   Thumb Code    68  bsp_led.o(.text)
    led1_on                                  0x080110ad   Thumb Code    12  bsp_led.o(.text)
    led1_off                                 0x080110b9   Thumb Code    12  bsp_led.o(.text)
    led2_on                                  0x080110c5   Thumb Code    12  bsp_led.o(.text)
    led2_off                                 0x080110d1   Thumb Code    12  bsp_led.o(.text)
    led_toggle                               0x080110dd   Thumb Code     8  bsp_led.o(.text)
    delay_init                               0x080110e9   Thumb Code    50  bsp_systick.o(.text)
    delay_ms                                 0x0801111b   Thumb Code    72  bsp_systick.o(.text)
    delay_us                                 0x08011163   Thumb Code    72  bsp_systick.o(.text)
    usart_init                               0x080111e3   Thumb Code   142  bsp_usart.o(.text)
    usart_sendbyte                           0x08011271   Thumb Code    30  bsp_usart.o(.text)
    usart_sendstring                         0x0801128f   Thumb Code    42  bsp_usart.o(.text)
    fputc                                    0x080112b9   Thumb Code    32  bsp_usart.o(.text)
    fgetc                                    0x080112d9   Thumb Code    26  bsp_usart.o(.text)
    USART1_IRQHandler                        0x080112f3   Thumb Code    42  bsp_usart.o(.text)
    beep_init                                0x08011329   Thumb Code    46  bsp_beep.o(.text)
    beep_on                                  0x08011357   Thumb Code    12  bsp_beep.o(.text)
    beep_off                                 0x08011363   Thumb Code    12  bsp_beep.o(.text)
    beep_toggle                              0x0801136f   Thumb Code     8  bsp_beep.o(.text)
    key_init                                 0x0801137d   Thumb Code    54  bsp_key.o(.text)
    key_scan                                 0x080113b3   Thumb Code    40  bsp_key.o(.text)
    read_button1_gpio                        0x080113db   Thumb Code    12  bsp_key.o(.text)
    __scatterload                            0x080113f1   Thumb Code    28  init.o(.text)
    __scatterload_rt2                        0x080113f1   Thumb Code     0  init.o(.text)
    __scatterload_copy                       0x08011415   Thumb Code    14  handlers.o(i.__scatterload_copy)
    __scatterload_null                       0x08011423   Thumb Code     2  handlers.o(i.__scatterload_null)
    __scatterload_zeroinit                   0x08011425   Thumb Code    14  handlers.o(i.__scatterload_zeroinit)
    malloc                                   0x08011435   Thumb Code    92  malloc.o(i.malloc)
    Region$$Table$$Base                      0x080114a0   Number         0  anon$$obj.o(Region$$Table)
    Region$$Table$$Limit                     0x080114c0   Number         0  anon$$obj.o(Region$$Table)
    SystemCoreClock                          0x20000000   Data           4  system_stm32f10x.o(.data)
    AHBPrescTable                            0x20000004   Data          16  system_stm32f10x.o(.data)
    __microlib_freelist                      0x2000002c   Data           4  mvars.o(.data)
    __microlib_freelist_initialised          0x20000030   Data           4  mvars.o(.data)
    ring_buf                                 0x20000034   Data          16  app.o(.bss)
    __heap_base                              0x20000048   Data           0  startup_stm32f10x_hd.o(HEAP)
    __heap_limit                             0x20000248   Data           0  startup_stm32f10x_hd.o(HEAP)
    __initial_sp                             0x20000648   Data           0  startup_stm32f10x_hd.o(STACK)



==============================================================================

Memory Map of the image

  Image Entry point : 0x08010131

  Load Region LR_IROM1 (Base: 0x08010000, Size: 0x000014f4, Max: 0x00030000, ABSOLUTE)

    Execution Region ER_IROM1 (Base: 0x08010000, Size: 0x000014c0, Max: 0x00030000, ABSOLUTE)

    Base Addr    Size         Type   Attr      Idx    E Section Name        Object

    0x08010000   0x00000130   Data   RO            3    RESET               startup_stm32f10x_hd.o
    0x08010130   0x00000000   Code   RO          598  * .ARM.Collect$$$$00000000  mc_w.l(entry.o)
    0x08010130   0x00000004   Code   RO          633    .ARM.Collect$$$$00000001  mc_w.l(entry2.o)
    0x08010134   0x00000004   Code   RO          636    .ARM.Collect$$$$00000004  mc_w.l(entry5.o)
    0x08010138   0x00000000   Code   RO          638    .ARM.Collect$$$$00000008  mc_w.l(entry7b.o)
    0x08010138   0x00000000   Code   RO          640    .ARM.Collect$$$$0000000A  mc_w.l(entry8b.o)
    0x08010138   0x00000008   Code   RO          641    .ARM.Collect$$$$0000000B  mc_w.l(entry9a.o)
    0x08010140   0x00000000   Code   RO          643    .ARM.Collect$$$$0000000D  mc_w.l(entry10a.o)
    0x08010140   0x00000000   Code   RO          645    .ARM.Collect$$$$0000000F  mc_w.l(entry11a.o)
    0x08010140   0x00000004   Code   RO          634    .ARM.Collect$$$$00002712  mc_w.l(entry2.o)
    0x08010144   0x00000024   Code   RO            4    .text               startup_stm32f10x_hd.o
    0x08010168   0x000001e0   Code   RO           24    .text               system_stm32f10x.o
    0x08010348   0x000000dc   Code   RO          121    .text               misc.o
    0x08010424   0x0000035c   Code   RO          269    .text               stm32f10x_gpio.o
    0x08010780   0x000003a4   Code   RO          317    .text               stm32f10x_rcc.o
    0x08010b24   0x00000408   Code   RO          379    .text               stm32f10x_usart.o
    0x08010f2c   0x000000dc   Code   RO          403    .text               ring_buf.o
    0x08011008   0x00000048   Code   RO          445    .text               main.o
    0x08011050   0x00000016   Code   RO          484    .text               stm32f10x_it.o
    0x08011066   0x00000002   PAD
    0x08011068   0x00000080   Code   RO          514    .text               bsp_led.o
    0x080110e8   0x000000d4   Code   RO          526    .text               bsp_systick.o
    0x080111bc   0x0000016c   Code   RO          540    .text               bsp_usart.o
    0x08011328   0x00000054   Code   RO          562    .text               bsp_beep.o
    0x0801137c   0x00000074   Code   RO          574    .text               bsp_key.o
    0x080113f0   0x00000024   Code   RO          653    .text               mc_w.l(init.o)
    0x08011414   0x0000000e   Code   RO          657    i.__scatterload_copy  mc_w.l(handlers.o)
    0x08011422   0x00000002   Code   RO          658    i.__scatterload_null  mc_w.l(handlers.o)
    0x08011424   0x0000000e   Code   RO          659    i.__scatterload_zeroinit  mc_w.l(handlers.o)
    0x08011432   0x00000002   PAD
    0x08011434   0x0000006c   Code   RO          606    i.malloc            mc_w.l(malloc.o)
    0x080114a0   0x00000020   Data   RO          655    Region$$Table       anon$$obj.o


    Execution Region RW_IRAM1 (Base: 0x20000000, Size: 0x00000648, Max: 0x0000c000, ABSOLUTE)

    Base Addr    Size         Type   Attr      Idx    E Section Name        Object

    0x20000000   0x00000014   Data   RW           25    .data               system_stm32f10x.o
    0x20000014   0x00000014   Data   RW          318    .data               stm32f10x_rcc.o
    0x20000028   0x00000004   Data   RW          527    .data               bsp_systick.o
    0x2000002c   0x00000004   Data   RW          651    .data               mc_w.l(mvars.o)
    0x20000030   0x00000004   Data   RW          652    .data               mc_w.l(mvars.o)
    0x20000034   0x00000010   Zero   RW          500    .bss                app.o
    0x20000044   0x00000004   PAD
    0x20000048   0x00000200   Zero   RW            2    HEAP                startup_stm32f10x_hd.o
    0x20000248   0x00000400   Zero   RW            1    STACK               startup_stm32f10x_hd.o


==============================================================================

Image component sizes


      Code (inc. data)   RO Data    RW Data    ZI Data      Debug   Object Name

         0          0          0          0         16        243   app.o
        84          6          0          0          0       1265   bsp_beep.o
       116         10          0          0          0       1250   bsp_key.o
       128          4          0          0          0       1480   bsp_led.o
       212         18          0          4          0       1099   bsp_systick.o
       364         12          0          0          0       2302   bsp_usart.o
         0          0          0          0          0       4508   core_cm3.o
        72         10          0          0          0        499   main.o
       220         22          0          0          0       1861   misc.o
       220          0          0          0          0       4008   ring_buf.o
        36          8        304          0       1536        884   startup_stm32f10x_hd.o
       860         38          0          0          0       5789   stm32f10x_gpio.o
        22          0          0          0          0       1047   stm32f10x_it.o
       932         36          0         20          0       8992   stm32f10x_rcc.o
      1032         22          0          0          0       8520   stm32f10x_usart.o
       480         40          0         20          0     230091   system_stm32f10x.o

    ----------------------------------------------------------------------
      4780        226        336         44       1556     273838   Object Totals
         0          0         32          0          0          0   (incl. Generated)
         2          0          0          0          4          0   (incl. Padding)

    ----------------------------------------------------------------------

      Code (inc. data)   RO Data    RW Data    ZI Data      Debug   Library Member Name

         0          0          0          0          0          0   entry.o
         0          0          0          0          0          0   entry10a.o
         0          0          0          0          0          0   entry11a.o
         8          4          0          0          0          0   entry2.o
         4          0          0          0          0          0   entry5.o
         0          0          0          0          0          0   entry7b.o
         0          0          0          0          0          0   entry8b.o
         8          4          0          0          0          0   entry9a.o
        30          0          0          0          0          0   handlers.o
        36          8          0          0          0         68   init.o
       108         16          0          0          0         84   malloc.o
         0          0          0          8          0          0   mvars.o

    ----------------------------------------------------------------------
       196         32          0          8          0        152   Library Totals
         2          0          0          0          0          0   (incl. Padding)

    ----------------------------------------------------------------------

      Code (inc. data)   RO Data    RW Data    ZI Data      Debug   Library Name

       194         32          0          8          0        152   mc_w.l

    ----------------------------------------------------------------------
       196         32          0          8          0        152   Library Totals

    ----------------------------------------------------------------------

==============================================================================


      Code (inc. data)   RO Data    RW Data    ZI Data      Debug   

      4976        258        336         52       1556     273154   Grand Totals
      4976        258        336         52       1556     273154   ELF Image Totals
      4976        258        336         52          0          0   ROM Totals

==============================================================================

    Total RO  Size (Code + RO Data)                 5312 (   5.19kB)
    Total RW  Size (RW Data + ZI Data)              1608 (   1.57kB)
    Total ROM Size (Code + RO Data + RW Data)       5364 (   5.24kB)

==============================================================================

